{
  "_format": "hh-sol-artifact-1",
  "contractName": "WavePortal",
  "sourceName": "contracts/WavePortal.sol",
  "abi": [
    {
      "inputs": [],
      "stateMutability": "payable",
      "type": "constructor"
    },
    {
      "anonymous": false,
      "inputs": [
        {
          "indexed": true,
          "internalType": "address",
          "name": "from",
          "type": "address"
        },
        {
          "indexed": true,
          "internalType": "string",
          "name": "interactionType",
          "type": "string"
        },
        {
          "indexed": false,
          "internalType": "uint256",
          "name": "timestamp",
          "type": "uint256"
        },
        {
          "indexed": false,
          "internalType": "string",
          "name": "message",
          "type": "string"
        }
      ],
      "name": "NewInteraction",
      "type": "event"
    },
    {
      "inputs": [
        {
          "internalType": "string",
          "name": "_message",
          "type": "string"
        }
      ],
      "name": "bark",
      "outputs": [],
      "stateMutability": "nonpayable",
      "type": "function"
    },
    {
      "inputs": [],
      "name": "getAllInteractions",
      "outputs": [
        {
          "components": [
            {
              "internalType": "address",
              "name": "waver",
              "type": "address"
            },
            {
              "internalType": "string",
              "name": "interactionType",
              "type": "string"
            },
            {
              "internalType": "string",
              "name": "message",
              "type": "string"
            },
            {
              "internalType": "uint256",
              "name": "timestamp",
              "type": "uint256"
            }
          ],
          "internalType": "struct WavePortal.Interaction[]",
          "name": "",
          "type": "tuple[]"
        }
      ],
      "stateMutability": "view",
      "type": "function"
    },
    {
      "inputs": [],
      "name": "getTotalBarks",
      "outputs": [
        {
          "internalType": "uint256",
          "name": "",
          "type": "uint256"
        }
      ],
      "stateMutability": "view",
      "type": "function"
    },
    {
      "inputs": [],
      "name": "getTotalMeows",
      "outputs": [
        {
          "internalType": "uint256",
          "name": "",
          "type": "uint256"
        }
      ],
      "stateMutability": "view",
      "type": "function"
    },
    {
      "inputs": [
        {
          "internalType": "address",
          "name": "",
          "type": "address"
        }
      ],
      "name": "lastWavedAt",
      "outputs": [
        {
          "internalType": "uint256",
          "name": "",
          "type": "uint256"
        }
      ],
      "stateMutability": "view",
      "type": "function"
    },
    {
      "inputs": [
        {
          "internalType": "string",
          "name": "_message",
          "type": "string"
        }
      ],
      "name": "meow",
      "outputs": [],
      "stateMutability": "nonpayable",
      "type": "function"
    }
  ],
  "bytecode": "0x60806040526200004f6040518060400160405280600981526020017f6c6f6c7a617361757200000000000000000000000000000000000000000000008152506200005560201b62000c0b1760201c565b620001e9565b620000f5816040516024016200006c919062000162565b6040516020818303038152906040527f41304fac000000000000000000000000000000000000000000000000000000007bffffffffffffffffffffffffffffffffffffffffffffffffffffffff19166020820180517bffffffffffffffffffffffffffffffffffffffffffffffffffffffff8381831617835250505050620000f860201b60201c565b50565b60008151905060006a636f6e736f6c652e6c6f679050602083016000808483855afa5050505050565b60006200012e8262000186565b6200013a818562000191565b93506200014c818560208601620001a2565b6200015781620001d8565b840191505092915050565b600060208201905081810360008301526200017e818462000121565b905092915050565b600081519050919050565b600082825260208201905092915050565b60005b83811015620001c2578082015181840152602081019050620001a5565b83811115620001d2576000848401525b50505050565b6000601f19601f8301169050919050565b61183b80620001f96000396000f3fe608060405234801561001057600080fd5b50600436106100625760003560e01c806366ae706714610067578063a42a466314610083578063c0748a3f146100b3578063c2655623146100d1578063c3e2b335146100ef578063cc55337c1461010d575b600080fd5b610081600480360381019061007c9190610f4e565b610129565b005b61009d60048036038101906100989190610f25565b610552565b6040516100aa9190611479565b60405180910390f35b6100bb61056a565b6040516100c89190611355565b60405180910390f35b6100d961074d565b6040516100e69190611479565b60405180910390f35b6100f7610798565b6040516101049190611479565b60405180910390f35b61012760048036038101906101229190610f4e565b6107e3565b005b426005600460003373ffffffffffffffffffffffffffffffffffffffff1673ffffffffffffffffffffffffffffffffffffffff1681526020019081526020016000205461017691906115a1565b106101b6576040517f08c379a00000000000000000000000000000000000000000000000000000000081526004016101ad90611459565b60405180910390fd5b42600460003373ffffffffffffffffffffffffffffffffffffffff1673ffffffffffffffffffffffffffffffffffffffff168152602001908152602001600020819055506001600081548092919061020d906116a7565b91905055506102516040518060400160405280600e81526020017f257320686173206d656f7765642100000000000000000000000000000000000081525033610ca4565b600360405180608001604052803373ffffffffffffffffffffffffffffffffffffffff1681526020016040518060400160405280600481526020017f4d454f5700000000000000000000000000000000000000000000000000000000815250815260200183815260200142815250908060018154018082558091505060019003906000526020600020906004020160009091909190915060008201518160000160006101000a81548173ffffffffffffffffffffffffffffffffffffffff021916908373ffffffffffffffffffffffffffffffffffffffff160217905550602082015181600101908051906020019061034b929190610e05565b506040820151816002019080519060200190610368929190610e05565b5060608201518160030155505060006064600254424461038891906115a1565b61039291906115a1565b61039c91906116f0565b90506103dd6040518060400160405280601681526020017f52616e646f6d20232067656e6572617465643a2025730000000000000000000081525082610d40565b8060028190555060328110156104ea576000655af3107a400090504781111561043b576040517f08c379a000000000000000000000000000000000000000000000000000000000815260040161043290611419565b60405180910390fd5b60003373ffffffffffffffffffffffffffffffffffffffff168260405161046190611340565b60006040518083038185875af1925050503d806000811461049e576040519150601f19603f3d011682016040523d82523d6000602084013e6104a3565b606091505b50509050806104e7576040517f08c379a00000000000000000000000000000000000000000000000000000000081526004016104de90611439565b60405180910390fd5b50505b6040516104f69061132b565b60405180910390203373ffffffffffffffffffffffffffffffffffffffff167f91c536e639eddf80e6d226bf0eb0a6c3a0b37bd5cd0346cdd8f447df00903cdd4285604051610546929190611494565b60405180910390a35050565b60046020528060005260406000206000915090505481565b60606003805480602002602001604051908101604052809291908181526020016000905b8282101561074457838290600052602060002090600402016040518060800160405290816000820160009054906101000a900473ffffffffffffffffffffffffffffffffffffffff1673ffffffffffffffffffffffffffffffffffffffff1673ffffffffffffffffffffffffffffffffffffffff16815260200160018201805461061790611675565b80601f016020809104026020016040519081016040528092919081815260200182805461064390611675565b80156106905780601f1061066557610100808354040283529160200191610690565b820191906000526020600020905b81548152906001019060200180831161067357829003601f168201915b505050505081526020016002820180546106a990611675565b80601f01602080910402602001604051908101604052809291908181526020018280546106d590611675565b80156107225780601f106106f757610100808354040283529160200191610722565b820191906000526020600020905b81548152906001019060200180831161070557829003601f168201915b505050505081526020016003820154815250508152602001906001019061058e565b50505050905090565b60006107906040518060400160405280600f81526020017f546f74616c204261726b733a2025640000000000000000000000000000000000815250600054610d40565b600054905090565b60006107db6040518060400160405280600f81526020017f546f74616c204d656f77733a2025640000000000000000000000000000000000815250600154610d40565b600154905090565b426005600460003373ffffffffffffffffffffffffffffffffffffffff1673ffffffffffffffffffffffffffffffffffffffff1681526020019081526020016000205461083091906115a1565b10610870576040517f08c379a0000000000000000000000000000000000000000000000000000000008152600401610867906113f9565b60405180910390fd5b42600460003373ffffffffffffffffffffffffffffffffffffffff1673ffffffffffffffffffffffffffffffffffffffff168152602001908152602001600020819055506000808154809291906108c6906116a7565b919050555061090a6040518060400160405280600e81526020017f257320686173206261726b65642100000000000000000000000000000000000081525033610ca4565b600360405180608001604052803373ffffffffffffffffffffffffffffffffffffffff1681526020016040518060400160405280600481526020017f4241524b00000000000000000000000000000000000000000000000000000000815250815260200183815260200142815250908060018154018082558091505060019003906000526020600020906004020160009091909190915060008201518160000160006101000a81548173ffffffffffffffffffffffffffffffffffffffff021916908373ffffffffffffffffffffffffffffffffffffffff1602179055506020820151816001019080519060200190610a04929190610e05565b506040820151816002019080519060200190610a21929190610e05565b50606082015181600301555050600060646002544244610a4191906115a1565b610a4b91906115a1565b610a5591906116f0565b9050610a966040518060400160405280601681526020017f52616e646f6d20232067656e6572617465643a2025730000000000000000000081525082610d40565b806002819055506032811015610ba3576000655af3107a4000905047811115610af4576040517f08c379a0000000000000000000000000000000000000000000000000000000008152600401610aeb90611419565b60405180910390fd5b60003373ffffffffffffffffffffffffffffffffffffffff1682604051610b1a90611340565b60006040518083038185875af1925050503d8060008114610b57576040519150601f19603f3d011682016040523d82523d6000602084013e610b5c565b606091505b5050905080610ba0576040517f08c379a0000000000000000000000000000000000000000000000000000000008152600401610b9790611439565b60405180910390fd5b50505b604051610baf90611316565b60405180910390203373ffffffffffffffffffffffffffffffffffffffff167f91c536e639eddf80e6d226bf0eb0a6c3a0b37bd5cd0346cdd8f447df00903cdd4285604051610bff929190611494565b60405180910390a35050565b610ca181604051602401610c1f9190611377565b6040516020818303038152906040527f41304fac000000000000000000000000000000000000000000000000000000007bffffffffffffffffffffffffffffffffffffffffffffffffffffffff19166020820180517bffffffffffffffffffffffffffffffffffffffffffffffffffffffff8381831617835250505050610ddc565b50565b610d3c8282604051602401610cba929190611399565b6040516020818303038152906040527f319af333000000000000000000000000000000000000000000000000000000007bffffffffffffffffffffffffffffffffffffffffffffffffffffffff19166020820180517bffffffffffffffffffffffffffffffffffffffffffffffffffffffff8381831617835250505050610ddc565b5050565b610dd88282604051602401610d569291906113c9565b6040516020818303038152906040527f9710a9d0000000000000000000000000000000000000000000000000000000007bffffffffffffffffffffffffffffffffffffffffffffffffffffffff19166020820180517bffffffffffffffffffffffffffffffffffffffffffffffffffffffff8381831617835250505050610ddc565b5050565b60008151905060006a636f6e736f6c652e6c6f679050602083016000808483855afa5050505050565b828054610e1190611675565b90600052602060002090601f016020900481019282610e335760008555610e7a565b82601f10610e4c57805160ff1916838001178555610e7a565b82800160010185558215610e7a579182015b82811115610e79578251825591602001919060010190610e5e565b5b509050610e879190610e8b565b5090565b5b80821115610ea4576000816000905550600101610e8c565b5090565b6000610ebb610eb6846114f5565b6114c4565b905082815260208101848484011115610ed357600080fd5b610ede848285611633565b509392505050565b600081359050610ef5816117ee565b92915050565b600082601f830112610f0c57600080fd5b8135610f1c848260208601610ea8565b91505092915050565b600060208284031215610f3757600080fd5b6000610f4584828501610ee6565b91505092915050565b600060208284031215610f6057600080fd5b600082013567ffffffffffffffff811115610f7a57600080fd5b610f8684828501610efb565b91505092915050565b6000610f9b838361128e565b905092915050565b610fac816115f7565b82525050565b610fbb816115f7565b82525050565b6000610fcc82611535565b610fd68185611558565b935083602082028501610fe885611525565b8060005b8581101561102457848403895281516110058582610f8f565b94506110108361154b565b925060208a01995050600181019050610fec565b50829750879550505050505092915050565b600061104182611540565b61104b8185611574565b935061105b818560208601611642565b611064816117dd565b840191505092915050565b600061107a82611540565b6110848185611585565b9350611094818560208601611642565b61109d816117dd565b840191505092915050565b60006110b5600f83611585565b91507f576169742035207365636f6e64732100000000000000000000000000000000006000830152602082019050919050565b60006110f5600483611596565b91507f4241524b000000000000000000000000000000000000000000000000000000006000830152600482019050919050565b6000611135603583611585565b91507f547279696e6720746f207769746864726177206d6f7265206d6f6e657920746860008301527f616e2074686520636f6e747261637420686173212e00000000000000000000006020830152604082019050919050565b600061119b602783611585565b91507f4661696c656420746f207769746864726177206d6f6e65792066726f6d20636f60008301527f6e74726163742e000000000000000000000000000000000000000000000000006020830152604082019050919050565b6000611201600483611596565b91507f4d454f57000000000000000000000000000000000000000000000000000000006000830152600482019050919050565b6000611241600083611569565b9150600082019050919050565b600061125b600883611585565b91507f576169742031356d0000000000000000000000000000000000000000000000006000830152602082019050919050565b60006080830160008301516112a66000860182610fa3565b50602083015184820360208601526112be8282611036565b915050604083015184820360408601526112d88282611036565b91505060608301516112ed60608601826112f8565b508091505092915050565b61130181611629565b82525050565b61131081611629565b82525050565b6000611321826110e8565b9150819050919050565b6000611336826111f4565b9150819050919050565b600061134b82611234565b9150819050919050565b6000602082019050818103600083015261136f8184610fc1565b905092915050565b60006020820190508181036000830152611391818461106f565b905092915050565b600060408201905081810360008301526113b3818561106f565b90506113c26020830184610fb2565b9392505050565b600060408201905081810360008301526113e3818561106f565b90506113f26020830184611307565b9392505050565b60006020820190508181036000830152611412816110a8565b9050919050565b6000602082019050818103600083015261143281611128565b9050919050565b600060208201905081810360008301526114528161118e565b9050919050565b600060208201905081810360008301526114728161124e565b9050919050565b600060208201905061148e6000830184611307565b92915050565b60006040820190506114a96000830185611307565b81810360208301526114bb818461106f565b90509392505050565b6000604051905081810181811067ffffffffffffffff821117156114eb576114ea6117ae565b5b8060405250919050565b600067ffffffffffffffff8211156115105761150f6117ae565b5b601f19601f8301169050602081019050919050565b6000819050602082019050919050565b600081519050919050565b600081519050919050565b6000602082019050919050565b600082825260208201905092915050565b600081905092915050565b600082825260208201905092915050565b600082825260208201905092915050565b600081905092915050565b60006115ac82611629565b91506115b783611629565b9250827fffffffffffffffffffffffffffffffffffffffffffffffffffffffffffffffff038211156115ec576115eb611721565b5b828201905092915050565b600061160282611609565b9050919050565b600073ffffffffffffffffffffffffffffffffffffffff82169050919050565b6000819050919050565b82818337600083830152505050565b60005b83811015611660578082015181840152602081019050611645565b8381111561166f576000848401525b50505050565b6000600282049050600182168061168d57607f821691505b602082108114156116a1576116a061177f565b5b50919050565b60006116b282611629565b91507fffffffffffffffffffffffffffffffffffffffffffffffffffffffffffffffff8214156116e5576116e4611721565b5b600182019050919050565b60006116fb82611629565b915061170683611629565b92508261171657611715611750565b5b828206905092915050565b7f4e487b7100000000000000000000000000000000000000000000000000000000600052601160045260246000fd5b7f4e487b7100000000000000000000000000000000000000000000000000000000600052601260045260246000fd5b7f4e487b7100000000000000000000000000000000000000000000000000000000600052602260045260246000fd5b7f4e487b7100000000000000000000000000000000000000000000000000000000600052604160045260246000fd5b6000601f19601f8301169050919050565b6117f7816115f7565b811461180257600080fd5b5056fea264697066735822122054e3778e6700f1167787f647789801f4b8f4803822348034c9fc4eafa8c3c6c164736f6c63430008000033",
  "linkReferences": {},
  "deployedLinkReferences": {}
}